:020000022000DC
:1060000000000120756302005D6302005F6302000F
:106010006163020063630200656302000000000028
:1060200000000000000000000000000067630200A4
:1060300069630200000000006B6302006D630200F0
:10604000598202006F630200498702006F630200F9
:106050006F6302006F630200D98502006F63020064
:106060006F6302006F6302006F6302006F630200E0
:106070006F6302006F6302006F6302006F630200D0
:106080006F630200A97002006F6302006F63020079
:10609000657102006F630200959302006F63020056
:1060A0006F6302006F6302006F6302006F630200A0
:1060B0006F6302006F630200000000000000000038
:1060C0006F6302006F6302006F6302006F63020080
:1060D0006F6302006F6302006F6302000000000044
:1060E00000000000000000000000000000000000B0
:1060F00000000000000000000000000000000000A0
:10610000000000000000000000000000000000008F
:10611000000000000000000000000000000000007F
:10612000000000000000000000000000000000006F
:10613000000000000000000000000000000000005F
:10614000000000000000000000000000000000004F
:10615000000000000000000000000000000000003F
:10616000000000000000000000000000000000002F
:10617000000000000000000000000000000000001F
:10618000000000000000000000000000000000000F
:1061900000000000000000000000000000000000FF
:1061A00000000000000000000000000000000000EF
:1061B00000000000000000000000000000000000DF
:1061C00000000000000000000000000000000000CF
:1061D00000000000000000000000000000000000BF
:1061E00000000000000000000000000000000000AF
:1061F000000000000000000000000000000000009F
:10620000354936480A1A02D0072291438D4634494F
:1062100034480A1A06D00722914381F309880222E2
:1062200082F3148830483149314A00F044F831484B
:106230003149324A00F03FF831483249324A00F0E1
:106240003AF832483249334A00F035F83248334997
:10625000334A00F030F833483349344A00F02BF821
:1062600033483449344A00F026F83448344900228F
:1062700000F02CF833483449002200F027F8334866
:106280003349091A082902DB002202604160314AC1
:1062900090471F481F49884205D00268043003B464
:1062A000904703BCF7E700208646EC46002000211B
:1062B000294A9047FEE7884207D0521A05D0037852
:1062C00001300B700131013AF9D17047884202D098
:1062D00002700130FAE770470000012000E0002062
:1062E0000000012000000120E09B0200B8570020C0
:1062F000F4570020D4630200D4630200EE9502003C
:10630000E09B0200B8570020B85700208496020096
:10631000849602008496020084960200849602000D
:10632000849602008496020084960200DE9B02009E
:106330001C9C0200F4570020F4570020F457002062
:106340006D63002070630020706300207063002084
:10635000708300209D630200FD900200FEE7FEE7CF
:10636000FEE7FEE7FEE7FEE7FEE7FEE7FEE7FEE705
:10637000704700BF1048804710484FF0070188431E
:1063800085460F4880470F48016841F4700101605D
:10639000BFF34F8FBFF36F8FFFF732BF0A480B4930
:1063A0000B4A884207D0521A05D0037801300B708F
:1063B0000131013AF9D170477163020000000120F8
:1063C000E17C020088ED00E084960200B8570020CE
:0463D000B85700209A
:1063D4007047000007B5044B0093044A402300F0C3
:1063E40032F803B05DF804FBF5630200F5570020B2
:1063F4002DE9F84388461446B2B10F4B0F4E0325DE
:10640400002743F00109224608EB0701002002F0AF
:106414006FFF0744241A48B933782BB14FF47A40FC
:10642400C847013D02D13570BDE8F88301233370BC
:10643400002CE8D1F8E700BF90960200F457002042
:10644400704702F089BFF0B595B01D461646084660
:106454000C4601F0C3FB1A9B0D93CDE9086500259A
:106464002B46082205A920460A958DF82C500C9538
:1064740001F0D1FB079B0293069B03939DF8143014
:106484008DF8115003F00302012A1DD1BDF8142028
:10649400059DC3F3C203C2F383168DF81030B20016
:1064A40008230EA9204601F0B6FBC5F3952508ABD9
:1064B4000093324602AB0EA9284600F0C1FB2046E9
:1064C40001F090FB15B0F0BD022AF8D1BDF81650CA
:1064D400C3F3C203C5F389158DF810300827082DBE
:1064E4002E4628BF08263B4632460EA9204601F018
:1064F40092FBAD1B08AB02AA31460EA8374400F04C
:1065040003FC002DEBD1DAE77047000007B5044B1C
:106514000093044A4023FFF796FF03B05DF804FBA1
:106524007D6502003658002030B5104D0FCD89B07E
:106534006C460FC495E80F0084E80F004FF0FF335A
:106544000622CDE90023CDE9023309484FF0EB736D
:1065540000226946069301F0E3FD08B100F02EFC29
:10656400044B00221A7009B030BD00BFA49602008B
:10657400B85700203558002038B50D4B0D4D00207C
:1065840018700D4804782D5DD2B21C4665B10430F4
:1065940002F006FD08B100F011FC084B1A7812B1A4
:1065A4002378002BFBD038BD0C3002F0FBFAF1E766
:1065B40076580020645F0020B8570020355800202A
:1065C40008B50848084A0378D35C33B1043002F0B4
:1065D40085FCBDE80840FFF7A7BF0C3002F080FA45
:1065E400F7E700BFB8570020645F0020FFF79CBFA7
:1065F40038B50A4DFFF725FF0421284600F088FA34
:10660400074B01245C71FFF7F1FF042105F1100031
:1066140000F07EFA034B5C7138BD00BF5096020057
:10662400CC570020D4570020037813F0040216D06E
:1066340003F00303012B03D0022B09D00120704780
:106644000A6800880232C0F3831002440A60F5E746
:106654000B684288023303EB92130B60EEE710469B
:10666400704700002DE9F04F87B000230446861CD4
:106674000DF107000F4615468DF8073000F068FF4E
:10668400454801683960D0E90132134401335B1A8B
:10669400824600F21C4700F5836900F21448B342B5
:1066A4001CD30020002D73D004F00F039B0143F092
:1066B400050363F30F00DAF80020DAF8083013401A
:1066C400033316444AF823009DF80700CAF8006013
:1066D40000F062FF012007B0BDE8F08F01213846C9
:1066E40000F0AFFF484600F0C4FF404600F0C1FF91
:1066F400DAF80400DAF808B0029000EA0B0003307C
:106704000AEB800002A9FFF78FFF029B50BB0BEA44
:1067140003020AEB820203F1020CD26803920133F2
:1067240003EA0B0B0AEB8B0B02F00302012ADBF8E2
:106734000C10CDF808C023D0022A16D08346404658
:1067440000F09AFF10B1029BCAF80430594638464B
:1067540000F077FFDAE901231344DAF8002001336B
:106764009B1A9CE70BEA0300C9E7BDF80E30C3F39C
:10677400891303334FEA114B0CEB93030293DEE7C7
:10678400BDF80C30C3F383134FEA114B6344F5E7B0
:10679400A40544F006008EE7485900200B4B0C4832
:1067A400FF2210B59A600022C3F81824C3E900221E
:1067B400C3F81424012283F8202401F0C8F9044604
:1067C40010B9044801F031FA204610BD48590020A0
:1067D400709602000897020030B50A4C71B10A4A5B
:1067E4000A49121BD20800239A4201D1002030BD6D
:1067F40031F82350854202D00133F5E7034654F8BB
:106804003300F4E70896020050960200B8570020BF
:10681400094B013903EBC000032909D8DFE801F073
:106824000A020406042070470079704740797047D3
:10683400002070470220704708960200034BD3E9FA
:106844000030C31A58425841704700BF48590020CD
:106854002DE9F04387B0FFF7F1FF0646002840F02A
:10686400F9807D4DC5F81804BFF34F8F6B68AC6891
:1068740002932340033305EB830002A9FFF7D4FE00
:10688400029B18B1D5F81824002A5FD004EA030249
:10689400991C013305EB8202234005EB8303D26884
:1068A400DB68049302F00303022B0392029160D18C
:1068B400BDF80E306948C3F38917502FB84628BF76
:1068C4004FF0500868F38F1308F10801ADF80E304B
:1068D40001F055F90646002800F0A78001F07EF982
:1068E4000023082203A9304601F08BF9029924EA17
:1068F40001020132B8EB820F4FEA820332D95FFA08
:1069040088F85BB32140DCB2A8EB040803315FFADA
:1069140088F9A046524C05EB8101082342463046D3
:1069240001F06FF934B108F108034A4621463046B4
:1069340001F067F9029B033703EB97070297D5F839
:106944001834002B49D1D5F8104459E02A689A42EA
:106954008FD86A60304607B0BDE8F08340491C46D2
:106964009946DAE70C40E11C0823424605EB810115
:10697400DDE7012B59D1BDF80C303848C3F383113E
:10698400062928BF062161F3891302318900ADF875
:106994000C3001F0F4F80646002846D001F01EF948
:1069A4000023082203A9304601F02BF90027BDF883
:1069B4000C20C2F38312BB00974203F10803BED23A
:1069C40002994A1C21400331029205EB8101042201
:1069D400304601F016F90137E9E7304601F002F9D3
:1069E400FFF72CFF80F00100C6B2B3E7E3685B79E0
:1069F40023B1236831461B6820469847E3681C6826
:106A0400002CF3D1304601F0EDF80DF107008DF8BC
:106A1400074000F09DFDD5F818340BB9029B6B605C
:106A24009DF8070000F0B8FDDAE7D5F8104454B932
:106A34000C4B0D480D49C01AC008000440F0020078
:106A440000F062F8CCE7236820469B689847E36827
:106A54001C68ECE700267DE7485900207096020088
:106A6400545900200896020030960200F196020064
:106A74002DE9F74F224D04460F46924601A9012203
:106A84001846D5F808909B46FFF7ECFD20B3019E0D
:106A94004FF00008B21CD84508EB020126D1194872
:106AA400002100F0ABFD80F31000000440EA144024
:106AB400E400731C04F0380403EA090306EA090637
:106AC40044F0010405EB8303033644EA881444EAE2
:106AD4008724D86045F8264095F820341BB1FFF789
:106AE400B7FE0028FBD103B0BDE8F08F09EA01012D
:106AF40005EB81015AF82830CB6008F10108CAE798
:106B040048590020645D002000231A46FFF7B0BFF7
:106B140030B50F49D1F8102403460020144634B987
:106B2400DC6820714AB9C1F81034226030BDE468D1
:106B34002579854206D02468F1E7D268116821607E
:106B44001360F3E701300A28E8D14FF0FF30EDE796
:106B540048590020094A38B50123D2F8104482F874
:106B640020341D4604B938BDE3685D7123682046AE
:106B74005B689847E3681C68F4E700BF4859002045
:106B840007B503460846197A052911D05B7A2BB15B
:106B9400094A0A49019000F0D2FD01980849019080
:106BA40000F0CDFD019803B05DF804EB00F0BCBD2E
:106BB400002AF8D0F2E700BF1497020019970200E8
:106BC4003997020030B5C38885B004460D4633B109
:106BD400144A00921449154A284600F0B0FD217A5F
:106BE40005291DD0637A4BB1A088FFF711FE104B25
:106BF400104953F82020284600F0A1FD227A0E4BBC
:106C0400A08853F8222003920021FFF7E5FD039AA0
:106C14000A490346284605B0BDE8304000F08FBD60
:106C240005B030BD14970200249702001C9702009F
:106C3400A097020019970200C49702003C97020033
:106C44002DE9F04385B01F460C9D002395F80C9068
:106C54002B7306460C46904629463846FFF7B2FF8A
:106C6400B8F1060F09D8DFE808F00412181F28331A
:106C740040003146284600F062FD0022294638468D
:106C8400FFF77EFF85F80C9005B0BDE8F08322681D
:106C94003146284600F053FDEFE7D4E9002331469E
:106CA400284600F04CFDE8E7A36800933146D4E998
:106CB4000023284600F043FDDFE7E3680193A3685F
:106CC40000933146D4E90023284600F038FDD4E788
:106CD40023690293E3680193A36800933146D4E9DE
:106CE4000023284600F02BFDC7E76369039323695B
:106CF4000293E3680193A36800933146D4E9002327
:106D0400284600F01CFDB8E708292DE9F74F804616
:106D14000E4617461C4639D8002593F80C901D736F
:106D240019461046FFF74EFFDFF880A0DFF880B069
:106D3400AE422ED918F805205946204600F0FFFC33
:106D44000135082DF4D11849DFF868A0DFF868B0E0
:106D5400204600F0F4FC0025AE421FD918F80520A7
:106D64000192104602F08EFB0028019A594608BF92
:106D74002E22204600F0E3FC0135082DECD101223F
:106D840021463846FFF7FCFE84F80C9003B0BDE8BA
:106D9400F08F5146204600F0D2FCD1E75146204600
:106DA40000F0CDFCE8E700BF509702004C970200CA
:106DB400469702004E970200529702001FB5002129
:106DC400039001AA44F20100CDE9011100F004F896
:106DD40005B05DF804FB000010B572B6FFF7BAFE0B
:106DE400FFF736FD0028FBD1104B114C1149E41A72
:106DF400E408240444F00100FFF786FE0E4B1B68F0
:106E0400DB0700D500BE0D4944F00200FFF77CFE0D
:106E1400BFF34F8F0A490B4BCA6802F4E062134375
:106E2400CB60BFF34F8F00BFFDE700BF08960200A1
:106E340030960200D8970200F0ED00E0E4970200DB
:106E440000ED00E00400FA054B1C30B5DB000446FD
:106E540012F003009BB20DD1074D2A601A44074B70
:106E64001A60074B1870074B1870074B1C80074BB0
:106E7400198030BD0720FCE70C5E0020085E00206E
:106E8400045E0020145E0020105E0020125E0020CC
:106E94002DE9F3472B4F3B888B4206460D4690461F
:106EA4004BD300240DF107008DF8074000F050FB90
:106EB400254B26481A78264B008893F800C0844551
:106EC4005FFA8CF138BF4C1CD2B238BFE4B2A24294
:106ED4002DD01C781A78D1B2904286BF0131C9B244
:106EE400002119709DF8070000F056FB4FF6FF7360
:106EF4009C4224D0DFF86090D9F800204FEAC40AFD
:106F040042F8348002EBC403A6B19DB1114B38881A
:106F14001B682A4604FB0030314602F0B8FAD9F85F
:106F24000030534400209D8002B0BDE8F0874FF646
:106F3400FF74D7E700209880F6E70920F4E70420DF
:106F4400F2E700BF105E0020145E0020125E0020F5
:106F5400045E0020085E00200C5E0020F8B5114C91
:106F6400114D264622782B789A4200D1F8BD0F485D
:106F74000F4A2378126807880E4802EBC3010068A1
:106F840052F83320898803FB070090470A49227886
:106F94000988D3B2914286BF0133DBB20023337038
:106FA400E0E700BF145E0020045E0020105E0020B5
:106FB4000C5E0020085E0020125E0020094A53780F
:106FC40091780133DBB2994208BF002311789942CA
:106FD4001FBF03705078182303FB002014BF043034
:106FE40000207047185E0020082910B5044602D01E
:106FF4000020FFF7E3FED4E90030BDE81040184755
:1070040073B5054600240DF107000E468DF80740C0
:1070140000F09EFA0DF10600FFF7D0FF90B1067064
:10702400094B9DF8062045605A709DF8070000F052
:10703400B3FA24B9054B4FF48012C3F8002120465B
:1070440002B070BD0424F0E7185E002000E100E007
:10705400024B4FF43C6043F00103184700980200D0
:1070640038B50C4B0C4C4FF40032C3F8802001258A
:107074004FF48033C4F84833C4F808336560FFF72D
:10708400E7FF064BA56000241C60FFF7E1FF044BFB
:107094001C7038BD00E100E000100140345F0020A6
:1070A400255F0020264B2DE9F3411B682549002567
:1070B400C1F84051C1F84451C1F84851C1F84C518C
:1070C400C1F80051C1F80451002B34D0D1F8044563
:1070D4001D49DFF888800968641A24F07F442F462C
:1070E4001968A14212D81A7CDE69641A0D4462B18F
:1070F4005A691F7400929B690193424608216846AD
:10710400FFF7C6FE08B1FFF759FEBEB90F4A104B90
:1071140011781B788B4205D10133DBB2022B08BFF7
:107124000023137012780B4B43F822500A4B4FF490
:107134008012C3F8002102B0BDE8F0813346CFE7E6
:10714400385F002000100140345F0020315F0020D0
:10715400305F0020285F002000E100E0ED6F0200B6
:107164002DE9F04FA24AA34913780978A24D994218
:1071740085B03CD00133DBB2022B08BF002313706F
:107184009E4912789E4B0F6853F822003B1823F057
:107194007F4300220B602B6816461446944613B9AD
:1071A40042B12B6006E0196881420ED902B12B600E
:1071B400091A196001272B68DFF84CA201934FF0DC
:1071C4000008BEB9DFF848B262E0401A0C44D9683E
:1071D400D3F81CE0C3F800C031B13A1922F07F4261
:1071E400C3E90121DE611E4673460122D7E700266A
:1071F4003746E0E73446F669804A63681268DFF888
:1072040014C2A068991A21F07F41614500F2A88058
:1072140001442160012222742A680023C4E9013355
:10722400E361002A40F0A5802C60CAE79BF80210B5
:107234005A1CD2B291428BF8002004BF00228BF872
:107244000020182202FB03B32A6819799C680229DA
:1072540077D0032900F08180012919D1207CB8B9A5
:10726400D3E90312A2605A69E2609A69654BA2618C
:107274001B78002B0CBF0B4603466360BCE78C42B3
:1072840000F094808946C9690029F8D10023237449
:107294009BF800309BF801209A42C7D12B68B8F1C3
:1072A400000F04D1019A9A4201D1002F43D0002B40
:1072B40079D0D3F800A0544D504BD5F804751C6810
:1072C400DFF854813E1B98F8003026F07F460336E1
:1072D4009BB94FF48033C5F84433C5F804334B4BA2
:1072E4004FF400324FF00109C3F880211A60C5F849
:1072F4000090FFF7ADFE88F80090B2452CBF5444CF
:10730400A41924F07F44C5F84045D5F80435DB1BA7
:1073140023F07F43E41B033324F07F44A3420AD9C0
:10732400D5F80435C5F84035FFF792FE374B4FF4D6
:107334000032C3F80021334B00221A7005B0BDE8B7
:10734400F08F114691469FE71174D2690123002AF8
:10735400FAD1002B9CD02A609AE700231946F6E75D
:10736400D31A23F07F43834234BFC31A002323601C
:1073740050E721681368994213D8591A1160E261E1
:1073840052E7091AD8691A4638B103461868884280
:10739400F7D3401A1860184613462160E061DC6197
:1073A4000FE71346F2E7FFF75BFEC4E74C4511D144
:1073B400D3692B6073B9DFF844E00120CDE90212F0
:1073C400CAF80800CEF800300E4B1870FFF740FEE4
:1073D400DDE902120B68C969C9F81C1011B108680B
:1073E40003440B602B68934218BF4FF001084DE72C
:1073F400305F0020315F0020385F0020345F0020C0
:10740400285F0020245F00200010014000E100E01C
:10741400185E0020FEFF7F00255F002008B5FFF7FF
:107424001FFE104B00200B2218809A700E4B186020
:107434000E4B18700E4B18700E4B4FF48012C02177
:10744400C3F8802183F814131A6002F18042A2F574
:107454006F22C2F8080583F81113074BD2F80425EC
:107464001A6008BD185E0020385F0020305F0020DD
:10747400315F002000E100E0345F0020074B9B787F
:107484004BB132B128B10368187C20B959745A61E0
:107494007047072070470820704700BF185E00201F
:1074A4002DE9F743DFF8848098F8023005460E464C
:1074B4001746ABB3A0B3042930D9436983B3437CE3
:1074C4000024012B0DF107000CBF8946A1468DF85D
:1074D400074000F03DF80DF10600FFF76FFDD8B14D
:1074E400012303700F4B4560D3F80435C0E90497BA
:1074F400C0E902369DF8063088F801309DF807008F
:1075040000F04AF824B9084B4FF48012C3F8002164
:10751400204603B0BDE8F0830424EFE70724F7E72F
:107524000824F5E70010014000E100E0185E0020A7
:10753400064A92783AB130B1426922B1002202740B
:107544000221FFF75DBD0820704700BF185E0020D0
:1075540070B5EFF3108672B60C4A946801239CB997
:1075640093600B4B0B4DD3F8801029401160C3F886
:107574008050D3F8841051604FF0FF32C3F8842058
:10758400047006B962B670BD0370FAE73C5F002070
:1075940000E100E0FC06FFBD084B9A6810B55AB143
:1075A40050B9EFF3108172B6054A1C6814605C6828
:1075B4005460986001B962B610BD00BF3C5F002002
:1075C40000E100E0EFF30583C3F308038BB1103B44
:1075D4005AB2002AADBF02F16043074A03F00F0319
:1075E40003F56143B4BFD05C93F800034009C0B213
:1075F40070470F20704700BF14ED00E010B503463C
:1076040053E8000F0A4643E8002494F0000FF7D132
:1076140010BD10B5034653E8002F42EA010043E8C9
:10762400000494F0000FF6D110BD10B5034653E8E2
:10763400000F00EA010243E8002494F0000FF6D1A1
:1076440010BD10B5034653E8002F02EB010043E8D8
:10765400000494F0000FF6D110BD10B5034653E8B2
:10766400002FA2EB010043E8000494F0000FF6D1D0
:1076740010BD0121FFF7CDBF0021FFF7D6BF10B524
:1076840090B1D0E9012301689B1ADBB20A60013B87
:10769400DBB2FF2B026802D10020107110BD11680B
:1076A4004C1C14600B70F2E70E20F7E737B5054663
:1076B40000240DF107008DF80740FFF749FF2A6801
:1076C4006B68116899420ED9481E106011F8014C7C
:1076D400EB68298A01FB0434AB6811791B1ADBB20D
:1076E400994238BF13719DF80700FFF755FF2046F4
:1076F40003B030BD37B5054600230DF107000C4635
:107704008DF80730FFF724FF2A681368591C1160AD
:10771400E968641A298AB4FBF1F41C709DF8070027
:10772400FFF73AFF03B030BD826810B504462AB1B2
:1077340043690168006998470023A36010BD0EB433
:1077440003B5039921B104AB01AA019300F06EF8CB
:1077540002B05DF804EB03B07047826830B404688B
:10776400551C8560A154D0E901329A4202D330BC41
:10777400FFF7DABF30BC70472DE9F84F9846DDE9D2
:107784000A43154682460F460A464FF00109AA42AB
:107794000FD2C14538BFC14613F0010B01D16CB9FA
:1077A40000240126B8F1010F1BD908F1FF386E43FC
:1077B400F8E709F10109B2FBF5F2E8E79B070ED5FA
:1077C400B8F1000F0CBF30262026A145E9D2013CB8
:1077D40031465046FFF7C1FF002CF6D1E0E72026E2
:1077E400F3E7B7FBF6F39D42E1D9DFF83C80B7FB42
:1077F400F6F3504618F8031006FB1377FFF7ADFFB6
:107804003346AB42B6FBF5F6F1D2BBF1000F02D022
:107814000CB1A14501D3BDE8F88F20215046013CAD
:10782400FFF79BFFF4E700BF069802002DE9F74F2E
:10783400054617468846002900F0428118F8011BC6
:1078440049B92B7B002B00F03B81284603B0BDE8EF
:10785400F04FFFF769BF252940F0B780002698F85C
:1078640000302D2B424608F1010823D0302B24D0C0
:107874002B2B25D000242A2B02F1010123D13B68B4
:107884001A1D1B683A601C440A4613782E2B26D115
:1078940001324FF0000A104610F8011BA1F1300C20
:1078A400BCF1090F1DD80A2303FB0A13A3F1300A04
:1078B4000246F0E746F00106D1E746F00206CEE7BD
:1078C40046F00406CBE711F8013CA3F13000092887
:1078D400DBD80A2202FB0434303C0A46CBE74FF0E3
:1078E400000A12F8011B01F0FB0068289046F8D04A
:1078F400782909D86F290CD8632962D022D8252980
:1079040063D0582900F0888098F80030002B95D176
:1079140097E770390829F7D801A353F821F000BF7D
:107924009F7A02000D7902000D7902002D7A02007F
:107934000D7902000B7A02000D7902000D79020024
:107944001D7A0200642901D06929DDD13A68D2F890
:107954000090111D89EAE9723960A2EBE9724FF0D7
:10796400010B092A35DCD34538BFD3462CB1B9F114
:10797400000F01DB720700D5013CB30702D5BAF151
:10798400000F03D0F00701D44CBB0024B9F1000F61
:107994002DDAC9F100092D212846FFF7DEFE06F095
:1079A4000302022A04D1BAF1000F01D11CBB002446
:1079B400CDE9004653460A2249462846FFF7DCFE35
:1079C400A2E73B681A1D19783A602846FFF7C5FEFE
:1079D4009AE70A230BF1010BB2FBF3F2C1E7A345CB
:1079E400D4D220212846013CFFF7B7FECCE771072B
:1079F400D5D52B21D0E7A345DAD230212846013C46
:107A0400FFF7ABFED2E73968CDE900460A1D3A60BC
:107A140053460A220968D0E739680A1D3A60CDE95D
:107A2400004653461022F5E73B681A1D3A6016F0EB
:107A34000106D3F8009028D1B9F1000F03D04846CD
:107A440001F0A3FD0646B44200D904BB09F1FF3995
:107A540019F8011F00293FF457AF2846FFF77DFEB0
:107A6400F6E728460136FFF778FE19F806100029D4
:107A7400F7D1A642BFF448AF002C3FF445AF202114
:107A84002846013CFFF769FEF3E70026EDE72021D5
:107A94002846013CFFF761FED5E73B681A1D3A60B2
:107AA400302128461C68FFF758FE78212846FFF746
:107AB40054FE00220823CDE90032214610227CE73F
:107AC40003B0BDE8F08F00BF2DE9F84FB0F806A071
:107AD4004579D2F800B09DF828900AFB05F5043DDD
:107AE40088460BEB0301A94203F1040488BFA5EB0C
:107AF400030BB4FBFAF607460AFB1644C2F800B0BF
:107B04004EB9AAEB04055D4528BF5D46BBF1000FE5
:107B140004D1BDE8F88F3F68013EF1E7043408EB77
:107B240006003C442A46B9F1000F0DD02146ABEBC8
:107B3400050B01F0ACFCDA452E443F6855464FF086
:107B4400000428BF5D46E1E701462046EFE7FFF762
:107B540096BDF8B546790146721E05460023934248
:107B64002D6803D30024A64202D8F8BD0133F6E7FA
:107B74000F682846FFF7BEFD01343946F3E72DE9C7
:107B8400F843068ACD1C0746FFF790FD043E3544B2
:107B94000446B5FBF6F5F0B14FF48073EDB2838083
:107BA400C680013D076081464FF00008A84512D207
:107BB4003846FFF77BFD064648B1637901336371AC
:107BC40008F10108C9F8000007608146EEE7204685
:107BD400FFF7BFFF34462046BDE8F8830121043097
:107BE400FFF72FBD10B5012104460430FFF735FD22
:107BF40010F0FF0F04D12046BDE81040FFF7A9BFE5
:107C040010BD1FB503920022009203AAFFF75CFF88
:107C140005B05DF804FB1FB503920122009203AA8C
:107C2400FFF752FF05B05DF804FB836800225A6039
:107C3400C3E904229A60DA601A6070470B684A68E4
:107C44004360934208BF0023016008BF436070474C
:107C5400436843B10268916852680B44934243609D
:107C640004BF0023436070470C4B1B78062B10D1D4
:107C74000B4B1B681A070CD10A4B186800F0F00371
:107C8400302B08D000F0E000A0F1400358425841E6
:107C94007047002070470120704700BFE00F00F0DC
:107CA400E40F00F0E80F00F0094B1B78062B0CD111
:107CB400084B1B681A0708D1074B186800F0F0003E
:107CC400A0F130035842584170470020704700BF6C
:107CD400E00F00F0E40F00F0E80F00F008B5FFF744
:107CE400C3FF28B17D4B7E4A1B68C3F30423136092
:107CF400FFF7DAFF10B17B4B7B4A1A60FFF7B4FF42
:107D040028B17A4B7A4A1B68C3F342331360FFF7F6
:107D1400CBFF20B1774AD36823F08073D360FFF799
:107D2400A3FF40B14FF080430022C3F80C21C3F8F5
:107D34001021C3F83825FFF7B7FF10B16E4B0322AB
:107D44001A60FFF7B1FF40B16C4B05221A600122A3
:107D54009A6700229A603F225A60694B1B78062B6F
:107D640050D1684B1B6819074CD1674B1B6803F053
:107D7400F003502B46D14FF08052644BD2F80414D8
:107D8400C3F82015D2F80814C3F82415D2F80C143B
:107D9400C3F82815D2F81014C3F82C15D2F814140B
:107DA400C3F83015D2F81814C3F83415D2F81C14DB
:107DB400C3F84015D2F82014C3F84415D2F824149B
:107DC400C3F84815D2F82814C3F84C15D2F82C146B
:107DD400C3F85015D2F83014C3F85415D2F834143B
:107DE400C3F86015D2F83814C3F86415D2F83C14FB
:107DF400C3F86815D2F84014C3F86C15D2F84424BB
:107E0400C3F87025FFF730FF28B1414B414A1B6886
:107E140003F04F031360FFF727FF48B14FF080438F
:107E2400D3F80024D20744BF6FF00102C3F8002442
:107E3400394B1B68062B08D1384B1B68062B01BF36
:107E4400374A136843F480631360364AD2F88830A3
:107E540043F47003C2F88830BFF34F8FBFF36F8FC2
:107E64004FF01023D3F80022002A03DBD3F80432A6
:107E7400002B2FDA2C4B0122C3F80425D3F800245D
:107E8400002AFBD04FF010221521C2F80012D3F8BB
:107E94000024002AFBD04FF010231522C3F804223B
:107EA400214B1A46D3F800140029FBD00021C3F853
:107EB4000415D2F80034002BFBD0BFF34F8F1949BF
:107EC4001A4BCA6802F4E0621343CB60BFF34F8FCE
:107ED40000BFFDE7164B174A1A6008BD24030010C3
:107EE4004035014074C007400DF0ADBA44020010A3
:107EF4003C050040F0ED00E0A005004010560040B5
:107F0400E00F00F0E40F00F0E80F00F000C00040C4
:107F140058020010E40E004030010010340100103B
:107F24003C17004000ED00E000E001400400FA05C9
:107F3400DC5700200090D00338B5074C051E04F12F
:107F4400080318BF1C4623682BB11A6822605B68BB
:107F540028469847F7E738BD505F002020B9054B05
:107F640001225A70FFF7E8BF012802D1014A90703C
:107F7400F8E77047485F002020B9034B01225A708C
:107F8400FFF7DABF704700BF485F002038B50B4CDD
:107F9400237883B90A486360A3602361E36000F037
:107FA40007F9054601F0DAF908B900F00DF90123E3
:107FB4002370284638BD8525FBE700BF485F0020B5
:107FC400617F020037B5184CA378054603F0FF0221
:107FD4009BB110B143680120984700230DF10700BD
:107FE4008DF80730FFF7B4FAE3689DF80700013312
:107FF400E360FFF7D1FA03B030BD0DF107008DF84F
:108004000720FFF7A5FA25B1226913463BB92A6078
:108014002561E368002BE7D100F0EAF8E4E79D422C
:10802400F7D01B68F2E700BF485F002037B50B4C60
:1080340000230DF107008DF80730FFF789FAE36894
:10804400013BE360E56815B900F0F8F8A5709DF808
:108054000700FFF7A1FA03B030BD00BF485F00205E
:10806400012813B508D003281CD018B9104B0122DD
:10807400C3F8802002B010BD0E4C00230DF10700A0
:108084008DF80730FFF764FA23780BB9FFF77EFF0A
:10809400E3689DF807000133E3600123A370FFF751
:1080A4007BFAE7E700F090F8FFF7C0FFE2E700BFD4
:1080B40000E100E0485F00201FB503788DF8003030
:1080C40043680193037A8DF80830C368054A039323
:1080D400054B684653F8213052F82110984705B0F3
:1080E4005DF804FB5C5F0020605F00201FB503782F
:1080F4008DF800304368019383688DF80830C368B5
:10810400054A0393054B684653F8213052F8211071
:10811400984705B05DF804FB5C5F0020605F0020B9
:10812400F0B5194B90F800C091F81DE043F82C20ED
:10813400164B16460A6943F82C20154B03F80CE03D
:108144000C4607460FCC89B06D460FC594E80F0066
:1081540085E80F00CDF810C0BEF1000F09D0002E45
:108164000C4A694608BF3246381D00F0EFFD09B0DD
:10817400F0BD002E084A694608BF324607F10C00DC
:1081840000F0EEFBF3E700BF605F00205C5F0020BF
:10819400645F0020BD800200F180020000F1804095
:1081A400002382B0036003680193019B02B070470F
:1081B400044A137923B9012110609180184670474D
:1081C40085207047685F0020084B1A68D20706D4E0
:1081D400C02283F800230122C3F880211A604FF0E3
:1081E40080430122C3F81825704700BF00E100E076
:1081F40038B54FF48270FFF7D1FF4FF0804302226D
:10820400C3F804230A4AD06840F08073D360094B52
:108214001C6844F0010119605D685968491BB1F597
:108224000A5FFAD31C60044BD06001221A6038BD87
:10823400F0ED00E0001000E008000040044B0122D3
:108244001A604FF08042D2F81834DB03FBD4704735
:108254000C000040124B1B6810B573B14FF48070D2
:10826400FFF79CFF4FF080430122C3F808230D4B16
:10827400587910B95A711B6898470B4B1B6873B136
:108284004FF48270FFF78AFF4FF080430222C3F855
:108294000823044BBDE810401B680120184710BD9B
:1082A40000010040685F00200401004000F18040AC
:1082B40000F5C040002382B0036003680193019B72
:1082C40002B07047800000F1A040D0F8002722F4EB
:1082D4004032C0F80027D0F8003743EA0141C0F823
:1082E40000177047054B4FF0FF32072843F8202052
:1082F40084BFC01880F83C20704700BF705F002026
:1083040010B5184C94F8493053BB04F124032021D0
:10831400FF22013911F0FF0103F8012BF9D1C8B292
:10832400FFF7E0FF01310929F9D1042200210E48A9
:1083340001F0D6F80D4BC02283F806234022C3F87F
:1083440080214FF4BE701A60FFF7B0FF084B4FF066
:108354000042C3F80423012384F84930002010BDEF
:108364000820FCE7705F0020B55F002000E100E01A
:108374000060004030B52E4B1A1892F924400134A5
:1083840053D18C78002C4CD01C46002254F8045B4A
:10839400013541D11C1884F82420002443F82240DC
:1083A400920002F1804202F5C0420B78D2F81055D7
:1083B4004C7825F498151B04240525F4F85504F489
:1083C400801403F44033C2F8105523430402D2F856
:1083D400105504F4F85423432B43C2F810354A785B
:1083E4000123012A4FF0A04203FA00F30CBFC2F8A4
:1083F4000835C2F80C3500F5E073032142F8231068
:10840400C2080C49012300F0070003FA00F08B5C5A
:1084140018438854002003E00132082AB6D104200E
:1084240030BDFE2382F82430D9E70820F8E700BFE6
:10843400705F0020B55F0020012303FA00F04FF0C5
:10844400A043C3F8080570474FF0A0410122D1F8BA
:10845400043502FA00F020EA03020340C1F80825BB
:10846400C1F80C3570470000F0B5364D2C1894F95E
:108474002440002C64DA8C78C4F34004002C0BBF35
:108484000823002309260826B34201D10420F0BDA5
:1084940055F8237001373FD12E1845F8232086F86C
:1084A400243014B9EA1882F83C008A78540713D4AB
:1084B400D60733D5820002F1A042D2F8004724F057
:1084C4000204C2F80047204EC20800F00707012446
:1084D400BC40B75C3C43B4548A780C7812F0020276
:1084E40025D09B0003F1804303F5C0430202D3F877
:1084F400101521F4473121F44071C3F810152404F8
:10850400D3F8101502F4F85204F4403422430A4319
:10851400C3F810250020BAE70133B5E74C7800F51D
:10852400E0724FF0A046A40046F82240CBE7083B97
:108534002B4493F8441041EA841483F84440E9E757
:108544000820A4E7705F0020B55F002038B51F4CF9
:10855400251895F92420072A16DD224492F83C3088
:108564009B09032B0BD14FF0A043D3F81015C14046
:1085740001F001010231BDE83840FFF7A3BE012B31
:108584000CBF02210321F6E7D3B2072B1CD89300BA
:1085940003F1804303F5C043D3F8100540F0010014
:1085A400C3F8100502F14000800080B2FFF77EFEA0
:1085B40051B195F9243054F823302BB1012303FA37
:1085C40002F2034BC3F8042338BD00BF705F0020E0
:1085D400006000402DE9FF470024574D01944FF4FB
:1085E4008072012102F1804303F5C04390B21B68FD
:1085F400012B06D1D5F804330B4202D0FFF756FE07
:108604000C430432B2F5907F4FEA4101EAD14B4B5F
:108614001B68012B0AD14FF4BE70FFF747FE4FF0E1
:10862400A04344F00044D3F81035019314F0FF0F35
:108634001AD0434F00250126344210D0AB0003F179
:10864400804303F5C043D3F81005D3F8101557F849
:10865400253023B1C1F30141C0F30420984701350B
:10866400082D4FEA4606E7D1002C62DA00224FF0CB
:10867400FF33CDE90223324F4FF001090DF1080811
:1086840097F9443097F84440013324F0C00550D0A2
:1086940004AA02EBD50104F0070311F8042C09FA2B
:1086A40003F31A424FEAD50043D07A19A40992F988
:1086B400242057F822603EB9032C3AD118F8002040
:1086C4001A4308F8002001E0032CF7D005F5E07206
:1086D4004FF0A04011F80C1C50F822201942C2F3AC
:1086E400014205D0022A24D1032C20D1214604E0E2
:1086F400032A1ED1032C1AD102212846FFF7E2FDDA
:108704003EB14FF0010A21462846B047BAF1000FA6
:108714000FD04FF0A043019AD3F81035934208D0FC
:108724000193029B0393ABE74FF0000AEBE7002EA3
:10873400FAD104B0BDE8F087006000407C610040DD
:10874400705F0020014B1B68184700BFBC5F00200E
:108754000E4B984237B50C4602D0002003B030BD12
:1087640000230DF107008DF80730FEF7F1FE084BEA
:108774001D7915B901221C601A719DF80700FEF7D6
:108784000BFF002DE9D01120E8E700BF00200040D6
:10879400BC5F0020034B984201BF034B00221A60C8
:1087A4001A71704700200040BC5F00200023435032
:1087B40082B043580193019B02B070470A4610B53A
:1087C4004FF48E71FFF7F2FF136A9168C95C136A64
:1087D40001331362C0F81C1510BD8B690A4610B52D
:1087E4004FF4847123B9FFF7E1FFD0F8183510BDB9
:1087F400FFF7DCFF536AD168D0F81805C854536AF0
:1088040001335362F3E700001FB501238DF80030F4
:10881400044BCDE90110D3E900126846904705B036
:108824005DF804FBC45F002030B54B48D0F8043336
:1088340013F4007F85B005464DD0D0F82431002BC9
:1088440049D04FF49271FFF7B1FF4FF40173C0F8B0
:108854000833424B93F829200AB9012242603E4969
:1088640002228DF80020D1F88024C1F880240392DC
:108874009A690292DA6801920022C3E906226846E4
:10888400D3E9001290473448D0F81C315BB1334926
:108894000A6A4B699A420A464AD291F82830002B58
:1088A40046D1FFF78BFF2C48D0F844318BB14FF4FD
:1088B400A271FFF77BFF294B93F829200AB101220B
:1088C40002609A692AB10022586AD9689A61FFF74E
:1088D4009BFF05B030BDD5F804335B07D3D5D5F87D
:1088E4000831002BCFD01D4C1B482146FFF775FFE4
:1088F400636AA2699A422346C5D1E269E1684AB132
:108904002369E3600023606AA261E3616362FFF7A5
:108914007BFFB8E794F829200AB901226A600E4A5D
:108924004FF40170C2F808030022586A9A61EEE716
:108934004FF48E710848FFF739FF51690029B2D00E
:108944000023029191688DF80030019153616846CB
:10895400D2E900139847A6E700200040C45F002036
:108964002DE9F8435A4B057991462C2202FB053236
:10897400064692F82A200C469846002A40F0A48025
:1089840054490068FFF7E4FE0746002840F09E8043
:1089940021683368481C0BD04FF0A04001228A4064
:1089A400C0F8082501F5E0724FF0030C40F822C02E
:1089B4006068421C1FBF00F5E0724FF0A04C4FF0FE
:1089C400000E4CF822E0A269C3F8242594F814C0E0
:1089D400627DBCF1010F4CEA0202C3F86C25C3F8B6
:1089E4001405C3F80C151DD1A1684A1C1FBF01F55D
:1089F400E0724FF0A0404FF0000C40F822C0E26853
:108A0400501C0BD04FF0A04C01209040CCF808052E
:108A140002F5E0704FF0030E4CF820E0C3F808258F
:108A2400C3F810152C236B4308EB0302C2F804901F
:108A3400226948F80320B9F1000F32D03068227F50
:108A44004FF48E71FFF7B2FE30684FF4A271FFF756
:108A5400ADFE33682049C3F80413190B43F30733FD
:108A6400002BA8BF03F160404FEA5313BCBF01F0D1
:108A74000F041A484FEA4212A8BF00F561404FEABA
:108A84008303D2B203F16043B4BF025580F80023DC
:108A940003F5614301F01F0101228A40C3F88021DC
:108AA4001A6033680422C3F800252C2303FB0583D2
:108AB4000022C3E9062283F829205A61012283F89F
:108AC4002A203846BDE8F8830827FAE71127F8E793
:108AD400C45F00202D8802008000020014ED00E035
:108AE400F8B5047900682C4D0023C0F800352C2318
:108AF40003FB04535B686BB1284BC0F8083340F3A5
:108B04000733C0F304315B0901228A40203324492E
:108B140041F82320D0F80C65D0F81415D0F80835A6
:108B2400D0F810254FF0FF37BE42C0F8147518BFB7
:108B340006F5E076C0F80C75C0F80875C0F8107535
:108B44001EBF4FF0A0474FF0020C47F826C04E1C42
:108B54001FBF4FF0A04601F5E071022746F82170CF
:108B6400511C1FBF4FF0A04102F5E072022641F8EC
:108B740022605A1C1FBF03F5E0734FF0A04202218C
:108B840042F82310FFF706FE2C2303FB04540023B2
:108B940084F82A306360F8BDC45F002084020200B8
:108BA40000E100E02DE9F843204B07794FF02C0950
:108BB40009FB0734054666699846002E33D10068E0
:108BC4006261A16026624FF48E7184F82860FFF719
:108BD400EDFD2868012383602146FFF7EFFD6368FC
:108BE400A14683B92868226A63699A4211D32B6823
:108BF400D3F81C21002AFBD00122DA602C2303FBCA
:108C0400078300225A613046BDE8F88394F828307F
:108C14003BB9D0F81C31002BF8D04946FFF7CEFD04
:108C2400E1E70F26EAE71126EDE700BFC45F002065
:108C34000023435082B043580193019B02B0704714
:108C44001FB501238DF80030054B8DF80800019104
:108C54006846D3E90012904705B05DF804FB00BFF5
:108C6400F05F00207FB5374AD2F82461002E47D048
:108C740010464FF49271FFF7DBFF02238DF80030AA
:108C8400D2F88034C2F880340393D2F83C358DF89E
:108C940008302D4BDA6801920022C3E906226846A7
:108CA400D3E9001290472748D0F844316BB14FF410
:108CB400A271FFF7BDFF244B9A6932B100229A6179
:108CC400D0F83C05D968FFF7BBFF1E48D0F8203127
:108CD400A3B14FF49071FFF7ABFF1B4B5A696AB114
:108CE400D0F84C158DF80810002299688DF80020F2
:108CF40001915A616846D3E90012904704B070BDEF
:108D0400D2F81031002BCED04FF488711046FFF703
:108D14008FFF0D4BD2F83C0599698842C3D1DC69B9
:108D2400D96864B1D2F8005225F02005C2F8005287
:108D34001A699C61DA60DE61FFF782FFB3E79C6128
:108D4400FAE700BF00200040F05F00202DE9F8435F
:108D54005E4B06799146242202FB0632044692F8C1
:108D640020200D469846002A40F0AC8058490068FF
:108D7400FFF7EEFC0746002840F0A6802968236828
:108D8400481C0BD04FF0A04001228A40C0F80825AF
:108D940001F5E0724FF0030C40F822C06868421CF1
:108DA4001FBF00F5E0724FF0A04C4FF0000E4CF8DE
:108DB40022E0AA69C3F8242595F814C06A7DBCF1A1
:108DC400010F4CEA0202C3F86C25C3F80C15C3F872
:108DD40014051DD1A9684A1C1FBF01F5E0724FF0AC
:108DE400A0404FF0000C40F822C0EA68501C0BD0A1
:108DF4004FF0A04C01209040CCF8080502F5E0703B
:108E04004FF0030E4CF820E0C3F80825C3F8101502
:108E14002423734308EB0302C2F804902A6948F838
:108E24000320B9F1000F3CD020682A7F4FF48871E9
:108E3400FFF7FEFE20684FF49071FFF7F9FE2068FB
:108E44004FF49271FFF7F4FE20684FF4A271FFF71C
:108E5400EFFE23681F49C3F80413190B43F30733C8
:108E6400002BA8BF03F160404FEA5313BCBF01F0CD
:108E74000F0519484FEA4212A8BF00F561404FEAB6
:108E84008303D2B203F16043B4BF425580F8002398
:108E940003F5614301F01F0101228A40C3F88021D8
:108EA4001A6023680822C3F80025242303FB0683E1
:108EB4000022C3E906225A61012283F820203846A1
:108EC400BDE8F8830827FAE71127F8E7F05F0020E8
:108ED400698C02001003020014ED00E0F8B5047977
:108EE40000682C4D0023C0F80035242303FB0453F1
:108EF4005B686BB1284BC0F8083340F30733C0F309
:108F040004315B0901228A402033244941F823209B
:108F1400D0F80C65D0F81415D0F80835D0F8102521
:108F24004FF0FF37BE42C0F80C7518BF06F5E07667
:108F3400C0F81475C0F80875C0F810751EBF4FF05E
:108F4400A0474FF0020C47F826C04E1C1FBF4FF03D
:108F5400A04601F5E071022746F82170511C1FBF9D
:108F64004FF0A04102F5E072022641F822605A1C3B
:108F74001FBF03F5E0734FF0A042022142F8231013
:108F8400FFF708FC242303FB0454002384F8203057
:108F94006360F8BDF05F00201003020000E100E010
:108FA40001F06043B3F1005F2DE9F041064632D190
:108FB4001B4B0779242505FB073598466C6964BB70
:108FC4006A610068A9604FF49071FFF731FE4FF4B5
:108FD400AC713068FFF72CFE33686A69A968C3F87E
:108FE4004415C3F8482501229A606A6862B9D3F827
:108FF4002021D3F8584152B9002CF8D00F2424234F
:1090040003FB078700237B612046BDE8F081002C29
:1090140018BF0F24F3E71024F6E71124F4E700BF88
:10902400F05F002010B5174A174C0368A41AE4082F
:1090340024040D2B44F003040CD00E2B19D0FEF79E
:10904400C1FA0F280CBF114911492046BDE8104050
:10905400FDF75ABD0F492046FDF756FD0E48002284
:109064004FF48041FEF71CFA0028E8D0FDF7A6FE75
:10907400E5E720460949FDF747FD0748FEF758FA9A
:10908400F2E700BF089602003096020063980200DF
:109094009498020038980200C46000204E980200A0
:1090A40007B504210190044A0DEB0100FDF7F0FE21
:1090B40003B05DF804FB00BF2990020008B511203D
:1090C400FFF7C2F9FEF77EFA074B024607481B1A60
:1090D400DB081B040F2A43F003000CBF04490549B5
:1090E400BDE80840FDF710BD309602000896020066
:1090F400CB980200FD98020007B5FEF747FF08B1C0
:10910400FDF75CFE0020FEF75DFF4FF400410020F8
:10911400FDF744FB08B1FDF751FEFDF769FAFFF7CF
:10912400EFF808B1FDF74AFE002369461120ADF8B7
:1091340000308DF80230FFF71DF908B1FDF73EFE4F
:109144001120FFF779F940F20233ADF804301F4AD9
:10915400022301A90D208DF80630FFF785F908B127
:10916400FDF72CFE194A01A90E20FFF77DF908B17D
:10917400FDF724FE01210D20FFF7E8F901210E205F
:10918400FFF7E4F9FEF74AF908B1FDF717FE104AB4
:1091940010480121FEF772F908B1FDF70FFE0E4BDE
:1091A4000E480F49C01AC008000440F00300FDF740
:1091B400ABFC0C4A0A210820FDF746FE08B1FDF776
:1091C400FDFDFDF7CBFE30BFFBE700BFA59002001D
:1091D400C19002005C9902000896020030960200D9
:1091E40035990200146000200369C1688B429DBF59
:1091F4008268D21802F1FF3203F1FF3394BF501A90
:10920400581A70472DE9F843D0E902940546A9EBB2
:1092140004084068904520440F46144404D900F0E3
:1092240036F9EC60BDE8F8834246A4EB090400F08B
:109234002EF96868224607EB0801F0E72DE9F843A8
:10924400C5680646894617464FF000083469B36876
:109254007068A54228BFE418013C621B5C1BBC4239
:1092640028BF3C46944228BF144649462844224617
:1092740000F00DF9B3682544AB4208BF00253F1B3D
:10928400A044A144F560E1D14046BDE8F883000064
:1092940010B5114C114AA2610223C4E90433104BE6
:1092A400E361A2644FF400730E4A0F492362E2643F
:1092B40000231022E01DA3626362E362A365636579
:1092C400E365226500F03FF90849204600F03BF9C8
:1092D4002023A37110BD00BFE46000206099020048
:1092E4006C6100205C610020699902006D990200A4
:1092F400F8B5184C182300FB033503FB0040254444
:10930400C46A012C0F4616460FD0022C1AD0F4B9A9
:109314002846FFF769FF864205D832463946284673
:10932400FFF770FF34462046F8BD2846FFF75CFF80
:109334008642344628BF0446224639462846FFF76B
:1093440061FFF0E72846BDE8F840FFF777BF002447
:10935400E9E700BFE4600020FFF79ABF014B1878EB
:10936400704700BF6C63002007B508496846FEF7E4
:1093740065FC019B13B903B05DF804FBD3E900203D
:1093840090476846FEF764FCF3E700BF7C9902004F
:10939400FFF7EABF4BDF70471FB50D4C01A8FFF77D
:1093A400F9FF70B9214602A8FEF748FC039B002B85
:1093B400F4D00198D3E90021904702A8FEF748FCB5
:1093C400F4E7052801D0FDF7F9FC04B010BD00BF97
:1093D400949902007F2805D8034B185C034B5B5C0F
:1093E4001840704700207047AC9902002C9A020084
:1093F400A0F16103192B98BF20387047A0F14103F5
:10940400192B98BF203070477F2805D8034B185C70
:10941400034B5B5C1840704700207047AC99020016
:109424002C9A0200A0F16103192B98BF20387047D1
:10943400A0F14103192B98BF203070477F299ABFB0
:10944400017001206FF02E0070475AB10A787F2A0C
:109454000AD800B10260002119605960501A18BF7F
:1094640001207047002070476FF02E007047000005
:1094740008B5034B5B689B681B68984708BD00BF31
:10948400E057002008B50921FFF7F2FF08BD844624
:1094940040EA010313F0030F18D18446202A0BD3AA
:1094A4002DE9F007B1E8F807A0E8F807A2F12002D7
:1094B400202AF7D2BDE8F007042A07D351F8043B69
:1094C40040F8043BA2F10402042AF7D2002A05D092
:1094D40011F8013B00F8013B013AF9D160467047AD
:1094E4008446002A2DD010F0030F04D000F8011B8D
:1094F400013A26D0F7E7C9B241EA012141EA014124
:10950400202A12D3A2F120022DE9F0030B460C46C7
:109514000D460E460F4688468946A0E8FA03203ACF
:10952400FBD2BDE8F00320320BD0042A05D340F867
:10953400041B043A05D0042AF9D200F8011B013AAD
:10954400FBD160467047024610F0030F16D111F0AC
:10955400030F13D12DE9F0004FF001374FF08033A2
:1095640051F8044BA4EB070525EA04051D4002D17C
:1095740042F8044BF4E7A1F10401F0BC11F8013BFB
:1095840002F8013B002BF9D1704700F1010110F002
:10959400030F11D010F8012B002A23D010F0030F71
:1095A4000AD010F8012B002A1CD010F0030F03D0AE
:1095B40010F8012B002A15D02DE970004FF001326C
:1095C4004FF0803350F8044BA4EB020525EA040560
:1095D4001D4000D1F6E7A0F1040070BC10F8012B87
:0A95E400002AFBD1A0EB0100704744
:0895F0007D7F02000000000075
:0895F8009D9302000000000039
:0896000065800200000000007B
:109608001C980200000000002298020000000000E0
:1096180029980200000000002D98020000000000B8
:1096280032980200000000000297020000000303C5
:10963800169802000000000074990200000003035D
:089648008899020000000303F1
:109650009896020000000000E1960200CC5700201E
:10966000C496020000000000D0960200D4570020EB
:109670007858002040590020485900208058002088
:0496800018000000CE
:109684000000000000000000000000000338FDD8C6
:1096940070470000D963020045640200D5630200EC
:1096A400FFFFFFFFFFFFFFFFFFFFFFFFFFFFFFFFC6
:1096B40000000000000000000000D60106010000C8
:1096C40011650200C56502000D65020075617274C2
:1096D4005F6C6F675F6261636B656E640072747464
:1096E4005F6C6F675F6261636B656E6400426163A8
:1096F4006B656E647320666C757368656400617075
:10970400700000006C5D00207F000000EC5D002014
:109714001B5B306D002573001B5B313B33316D00E7
:1097240025734C6F67732064726F707065642028B2
:1097340025642925730D0A003C25733E2025733AC0
:109744002000202530327800202020007C00256372
:10975400001B5B313B33306D001B5B313B33326D9F
:10976400001B5B313B33336D001B5B313B33346D8A
:10977400001B5B313B33356D001B5B313B33366D76
:10978400001B5B313B33376D007761726E696E6726
:1097940000696E666F006465627567001497020065
:1097A400559702001C9702005D970200659702001E
:1097B4006D970200759702007D970200859702005D
:1097C40000000000DE9702008D97020095970200CA
:1097D4009A970200466174616C206572726F720020
:1097E40053797374656D20726573657400000000AD
:1097F4000000000000000000000000000338FDD855
:109804007047303132333435363738394142434486
:109814004546636C6F636B00434C4F434B004750AA
:10982400494F54450050525300554152540055413C
:1098340052544500537461727420746F67676C6985
:109844006E67204C454420312E0053746F70207491
:109854006F67676C696E67204C454420312E004267
:109864007574746F6E2068616E646C6572206973C0
:1098740020657865637574696E6720696E20746805
:10988400726561642F6D61696E206D6F64652E0071
:10989400427574746F6E2068616E646C65722069C1
:1098A4007320657865637574696E6720696E2069D5
:1098B4006E746572727570742068616E646C657222
:1098C400206D6F64652E0054696D656F7574206832
:1098D400616E646C65722069732065786563757464
:1098E400696E6720696E207468726561642F6D61AA
:1098F400696E206D6F64652E0054696D656F7574B3
:109904002068616E646C6572206973206578656394
:109914007574696E6720696E20696E7465727275FC
:1099240070742068616E646C6572206D6F64652E5E
:10993400005363686564756C6572207475746F7226
:1099440069616C206578616D706C652073746172F7
:109954007465642E00000000C46000205465726DBC
:10996400696E616C00525454005345474745520098
:109974006E72665F73646800F895020000960200D8
:10998400080000006E72665F7364685F736F630043
:10999400F0950200F8950200080000004300000062
:1099A400504F534958000000202020202020202020
:1099B400206828282828202020202020202020203B
:1099C40020202020202020204810101010101010DB
:1099D40010101010101010108484848484848484E3
:1099E40084841010101010101081818181818101F4
:1099F4000101010101010101010101010101010153
:109A040001010110101010101082828282828202E1
:109A14000202020202020202020202020202020222
:109A24000202021010101020000703200417020184
:109A34000857104080000000A0990200A49A020078
:109A4400B89B020053756E004D6F6E00547565002F
:109A54005765640054687500467269005361740068
:109A6400000000004A616E00466562004D617200AC
:109A7400417072004D6179004A756E004A756C0040
:109A840041756700536570004F6374004E6F760034
:109A94004465630000000000414D00504D0000008B
:109AA400DC9B0200D89B0200D89B0200D89B0200DA
:109AB400D89B0200D89B0200D89B0200D89B0200CE
:109AC400D89B0200D89B0200FFFFFFFFFFFFFFFFB0
:109AD400FFFFFFFFFFFF0000189B0200489A0200EF
:109AE400549B0200689A02009C9A0200FC9A0200AD
:109AF400AC9B0200089B0200256D2F25642F25795D
:109B040000000000256120256220256520255420C1
:109B14002559000053756E646179004D6F6E646160
:109B2400790054756573646179005765646E657373
:109B3400646179005468757273646179004672696E
:109B44006461790053617475726461790000000086
:109B54004A616E75617279004665627275617279E7
:109B6400004D6172636800417072696C004D6179E7
:109B7400004A756E65004A756C79004175677573A6
:109B8400740053657074656D626572004F63746F21
:109B9400626572004E6F76656D626572004465633E
:109BA400656D62657200000025483A254D3A2553DB
:109BB40000000000D9930200F59302000194020012
:109BC4000D9402002994020035940200419402008D
:0A9BD4004F940200000000002E0074
:109BE00000000000002000400000000000200040B5
:109BF0000000000000000000FF0000000000000066
:109C0000FF0000000090D0033C9A02003C9A020042
:0C9C10003C9A02003C9A02003C9A0200C0
:040000032000637501
:00000001FF
